{
  "_format": "hh-sol-artifact-1",
  "contractName": "Transactions",
  "sourceName": "contracts/Transactions.sol",
  "abi": [
    {
      "anonymous": false,
      "inputs": [
        {
          "indexed": false,
          "internalType": "address",
          "name": "from",
          "type": "address"
        },
        {
          "indexed": false,
          "internalType": "address",
          "name": "receiver",
          "type": "address"
        },
        {
          "indexed": false,
          "internalType": "uint256",
          "name": "amount",
          "type": "uint256"
        },
        {
          "indexed": false,
          "internalType": "string",
          "name": "message",
          "type": "string"
        },
        {
          "indexed": false,
          "internalType": "uint256",
          "name": "timestamp",
          "type": "uint256"
        },
        {
          "indexed": false,
          "internalType": "string",
          "name": "keyword",
          "type": "string"
        }
      ],
      "name": "Transfer",
      "type": "event"
    },
    {
      "inputs": [
        {
          "internalType": "address payable",
          "name": "receiver",
          "type": "address"
        },
        {
          "internalType": "uint256",
          "name": "amount",
          "type": "uint256"
        },
        {
          "internalType": "string",
          "name": "message",
          "type": "string"
        },
        {
          "internalType": "string",
          "name": "keyword",
          "type": "string"
        }
      ],
      "name": "addToBlockchain",
      "outputs": [],
      "stateMutability": "nonpayable",
      "type": "function"
    },
    {
      "inputs": [],
      "name": "getAllTransactions",
      "outputs": [
        {
          "components": [
            {
              "internalType": "address",
              "name": "sender",
              "type": "address"
            },
            {
              "internalType": "address",
              "name": "receiver",
              "type": "address"
            },
            {
              "internalType": "uint256",
              "name": "amount",
              "type": "uint256"
            },
            {
              "internalType": "string",
              "name": "message",
              "type": "string"
            },
            {
              "internalType": "uint256",
              "name": "timestamp",
              "type": "uint256"
            },
            {
              "internalType": "string",
              "name": "keyword",
              "type": "string"
            }
          ],
          "internalType": "struct Transactions.TransferStruct[]",
          "name": "",
          "type": "tuple[]"
        }
      ],
      "stateMutability": "view",
      "type": "function"
    },
    {
      "inputs": [],
      "name": "getTransactionCount",
      "outputs": [
        {
          "internalType": "uint256",
          "name": "",
          "type": "uint256"
        }
      ],
      "stateMutability": "view",
      "type": "function"
    },
    {
      "inputs": [
        {
          "internalType": "uint256",
          "name": "",
          "type": "uint256"
        }
      ],
      "name": "transactions",
      "outputs": [
        {
          "internalType": "address",
          "name": "sender",
          "type": "address"
        },
        {
          "internalType": "address",
          "name": "receiver",
          "type": "address"
        },
        {
          "internalType": "uint256",
          "name": "amount",
          "type": "uint256"
        },
        {
          "internalType": "string",
          "name": "message",
          "type": "string"
        },
        {
          "internalType": "uint256",
          "name": "timestamp",
          "type": "uint256"
        },
        {
          "internalType": "string",
          "name": "keyword",
          "type": "string"
        }
      ],
      "stateMutability": "view",
      "type": "function"
    }
  ],
  "bytecode": "0x608060405234801561001057600080fd5b50610e81806100206000396000f3fe608060405234801561001057600080fd5b506004361061004c5760003560e01c806327506f53146100515780632e7700f01461006f5780639ace38c21461008d578063cc2d7ead146100c2575b600080fd5b6100596100de565b6040516100669190610b2d565b60405180910390f35b610077610321565b6040516100849190610b4f565b60405180910390f35b6100a760048036038101906100a29190610850565b61032a565b6040516100b996959493929190610abe565b60405180910390f35b6100dc60048036038101906100d791906107bd565b6104c6565b005b60606001805480602002602001604051908101604052809291908181526020016000905b8282101561031857838290600052602060002090600602016040518060c00160405290816000820160009054906101000a900473ffffffffffffffffffffffffffffffffffffffff1673ffffffffffffffffffffffffffffffffffffffff1673ffffffffffffffffffffffffffffffffffffffff1681526020016001820160009054906101000a900473ffffffffffffffffffffffffffffffffffffffff1673ffffffffffffffffffffffffffffffffffffffff1673ffffffffffffffffffffffffffffffffffffffff168152602001600282015481526020016003820180546101eb90610d4d565b80601f016020809104026020016040519081016040528092919081815260200182805461021790610d4d565b80156102645780601f1061023957610100808354040283529160200191610264565b820191906000526020600020905b81548152906001019060200180831161024757829003601f168201915b505050505081526020016004820154815260200160058201805461028790610d4d565b80601f01602080910402602001604051908101604052809291908181526020018280546102b390610d4d565b80156103005780601f106102d557610100808354040283529160200191610300565b820191906000526020600020905b8154815290600101906020018083116102e357829003601f168201915b50505050508152505081526020019060010190610102565b50505050905090565b60008054905090565b6001818154811061033a57600080fd5b90600052602060002090600602016000915090508060000160009054906101000a900473ffffffffffffffffffffffffffffffffffffffff16908060010160009054906101000a900473ffffffffffffffffffffffffffffffffffffffff16908060020154908060030180546103af90610d4d565b80601f01602080910402602001604051908101604052809291908181526020018280546103db90610d4d565b80156104285780601f106103fd57610100808354040283529160200191610428565b820191906000526020600020905b81548152906001019060200180831161040b57829003601f168201915b50505050509080600401549080600501805461044390610d4d565b80601f016020809104026020016040519081016040528092919081815260200182805461046f90610d4d565b80156104bc5780601f10610491576101008083540402835291602001916104bc565b820191906000526020600020905b81548152906001019060200180831161049f57829003601f168201915b5050505050905086565b60016000808282546104d89190610c31565b9250508190555060016040518060c001604052803373ffffffffffffffffffffffffffffffffffffffff1681526020018673ffffffffffffffffffffffffffffffffffffffff16815260200185815260200184815260200142815260200183815250908060018154018082558091505060019003906000526020600020906006020160009091909190915060008201518160000160006101000a81548173ffffffffffffffffffffffffffffffffffffffff021916908373ffffffffffffffffffffffffffffffffffffffff16021790555060208201518160010160006101000a81548173ffffffffffffffffffffffffffffffffffffffff021916908373ffffffffffffffffffffffffffffffffffffffff160217905550604082015181600201556060820151816003019080519060200190610617929190610688565b506080820151816004015560a082015181600501908051906020019061063e929190610688565b5050507f416cfa4330a4565f45c2fd2dd4826a83a37443aba2ce6f79477c7355afac35fa33858585428660405161067a96959493929190610a4f565b60405180910390a150505050565b82805461069490610d4d565b90600052602060002090601f0160209004810192826106b657600085556106fd565b82601f106106cf57805160ff19168380011785556106fd565b828001600101855582156106fd579182015b828111156106fc5782518255916020019190600101906106e1565b5b50905061070a919061070e565b5090565b5b8082111561072757600081600090555060010161070f565b5090565b600061073e61073984610b9b565b610b6a565b90508281526020810184848401111561075657600080fd5b610761848285610d0b565b509392505050565b60008135905061077881610e1d565b92915050565b600082601f83011261078f57600080fd5b813561079f84826020860161072b565b91505092915050565b6000813590506107b781610e34565b92915050565b600080600080608085870312156107d357600080fd5b60006107e187828801610769565b94505060206107f2878288016107a8565b935050604085013567ffffffffffffffff81111561080f57600080fd5b61081b8782880161077e565b925050606085013567ffffffffffffffff81111561083857600080fd5b6108448782880161077e565b91505092959194509250565b60006020828403121561086257600080fd5b6000610870848285016107a8565b91505092915050565b600061088583836109a1565b905092915050565b61089681610cd5565b82525050565b6108a581610c87565b82525050565b6108b481610c87565b82525050565b60006108c582610bdb565b6108cf8185610bfe565b9350836020820285016108e185610bcb565b8060005b8581101561091d57848403895281516108fe8582610879565b945061090983610bf1565b925060208a019950506001810190506108e5565b50829750879550505050505092915050565b600061093a82610be6565b6109448185610c0f565b9350610954818560208601610d1a565b61095d81610e0c565b840191505092915050565b600061097382610be6565b61097d8185610c20565b935061098d818560208601610d1a565b61099681610e0c565b840191505092915050565b600060c0830160008301516109b9600086018261089c565b5060208301516109cc602086018261089c565b5060408301516109df6040860182610a31565b50606083015184820360608601526109f7828261092f565b9150506080830151610a0c6080860182610a31565b5060a083015184820360a0860152610a24828261092f565b9150508091505092915050565b610a3a81610ccb565b82525050565b610a4981610ccb565b82525050565b600060c082019050610a6460008301896108ab565b610a71602083018861088d565b610a7e6040830187610a40565b8181036060830152610a908186610968565b9050610a9f6080830185610a40565b81810360a0830152610ab18184610968565b9050979650505050505050565b600060c082019050610ad360008301896108ab565b610ae060208301886108ab565b610aed6040830187610a40565b8181036060830152610aff8186610968565b9050610b0e6080830185610a40565b81810360a0830152610b208184610968565b9050979650505050505050565b60006020820190508181036000830152610b4781846108ba565b905092915050565b6000602082019050610b646000830184610a40565b92915050565b6000604051905081810181811067ffffffffffffffff82111715610b9157610b90610ddd565b5b8060405250919050565b600067ffffffffffffffff821115610bb657610bb5610ddd565b5b601f19601f8301169050602081019050919050565b6000819050602082019050919050565b600081519050919050565b600081519050919050565b6000602082019050919050565b600082825260208201905092915050565b600082825260208201905092915050565b600082825260208201905092915050565b6000610c3c82610ccb565b9150610c4783610ccb565b9250827fffffffffffffffffffffffffffffffffffffffffffffffffffffffffffffffff03821115610c7c57610c7b610d7f565b5b828201905092915050565b6000610c9282610cab565b9050919050565b6000610ca482610cab565b9050919050565b600073ffffffffffffffffffffffffffffffffffffffff82169050919050565b6000819050919050565b6000610ce082610ce7565b9050919050565b6000610cf282610cf9565b9050919050565b6000610d0482610cab565b9050919050565b82818337600083830152505050565b60005b83811015610d38578082015181840152602081019050610d1d565b83811115610d47576000848401525b50505050565b60006002820490506001821680610d6557607f821691505b60208210811415610d7957610d78610dae565b5b50919050565b7f4e487b7100000000000000000000000000000000000000000000000000000000600052601160045260246000fd5b7f4e487b7100000000000000000000000000000000000000000000000000000000600052602260045260246000fd5b7f4e487b7100000000000000000000000000000000000000000000000000000000600052604160045260246000fd5b6000601f19601f8301169050919050565b610e2681610c99565b8114610e3157600080fd5b50565b610e3d81610ccb565b8114610e4857600080fd5b5056fea26469706673582212205c75244e77515d20010c8ba446ebaff85ce8269ebb2a079f40bc5196da086ced64736f6c63430008000033",
  "linkReferences": {},
  "deployedLinkReferences": {}
}